{
  "contractName": "Allowance",
  "abi": [
    {
      "inputs": [],
      "stateMutability": "nonpayable",
      "type": "constructor"
    },
    {
      "anonymous": false,
      "inputs": [
        {
          "indexed": false,
          "internalType": "address",
          "name": "_forWho",
          "type": "address"
        },
        {
          "indexed": false,
          "internalType": "address",
          "name": "_fromWho",
          "type": "address"
        },
        {
          "indexed": false,
          "internalType": "uint256",
          "name": "_oldAmount",
          "type": "uint256"
        },
        {
          "indexed": false,
          "internalType": "uint256",
          "name": "_newAmount",
          "type": "uint256"
        }
      ],
      "name": "allowanceChanged",
      "type": "event"
    },
    {
      "inputs": [
        {
          "internalType": "address",
          "name": "",
          "type": "address"
        }
      ],
      "name": "allowance",
      "outputs": [
        {
          "internalType": "uint256",
          "name": "",
          "type": "uint256"
        }
      ],
      "stateMutability": "view",
      "type": "function"
    },
    {
      "inputs": [
        {
          "internalType": "address",
          "name": "",
          "type": "address"
        }
      ],
      "name": "validateMapping",
      "outputs": [
        {
          "internalType": "bool",
          "name": "",
          "type": "bool"
        }
      ],
      "stateMutability": "view",
      "type": "function"
    },
    {
      "inputs": [
        {
          "internalType": "address",
          "name": "",
          "type": "address"
        }
      ],
      "name": "validations",
      "outputs": [
        {
          "internalType": "uint8",
          "name": "",
          "type": "uint8"
        }
      ],
      "stateMutability": "view",
      "type": "function"
    },
    {
      "inputs": [
        {
          "internalType": "uint256",
          "name": "_amountWei",
          "type": "uint256"
        }
      ],
      "name": "convertWeiToEther",
      "outputs": [
        {
          "internalType": "uint256",
          "name": "",
          "type": "uint256"
        }
      ],
      "stateMutability": "pure",
      "type": "function"
    },
    {
      "inputs": [
        {
          "internalType": "address",
          "name": "_address",
          "type": "address"
        }
      ],
      "name": "validateAddress",
      "outputs": [],
      "stateMutability": "nonpayable",
      "type": "function"
    },
    {
      "inputs": [
        {
          "internalType": "address",
          "name": "_address",
          "type": "address"
        }
      ],
      "name": "unvalidateAddress",
      "outputs": [],
      "stateMutability": "nonpayable",
      "type": "function"
    },
    {
      "inputs": [
        {
          "internalType": "address",
          "name": "_who",
          "type": "address"
        },
        {
          "internalType": "uint256",
          "name": "_amount",
          "type": "uint256"
        }
      ],
      "name": "addAllowance",
      "outputs": [],
      "stateMutability": "nonpayable",
      "type": "function"
    },
    {
      "inputs": [
        {
          "internalType": "address",
          "name": "_who",
          "type": "address"
        },
        {
          "internalType": "uint256",
          "name": "_amount",
          "type": "uint256"
        }
      ],
      "name": "removeAllowance",
      "outputs": [],
      "stateMutability": "nonpayable",
      "type": "function"
    },
    {
      "inputs": [
        {
          "internalType": "address",
          "name": "_address",
          "type": "address"
        }
      ],
      "name": "addressStatus",
      "outputs": [
        {
          "internalType": "bool",
          "name": "",
          "type": "bool"
        }
      ],
      "stateMutability": "view",
      "type": "function"
    },
    {
      "inputs": [
        {
          "internalType": "address",
          "name": "_address",
          "type": "address"
        }
      ],
      "name": "addressRemainingValidation",
      "outputs": [
        {
          "internalType": "uint8",
          "name": "",
          "type": "uint8"
        }
      ],
      "stateMutability": "view",
      "type": "function"
    },
    {
      "inputs": [
        {
          "internalType": "address",
          "name": "_address",
          "type": "address"
        }
      ],
      "name": "addressAllowance",
      "outputs": [
        {
          "internalType": "uint256",
          "name": "",
          "type": "uint256"
        }
      ],
      "stateMutability": "view",
      "type": "function"
    }
  ],
  "bytecode": "0x60806040526001600460006101000a81548160ff021916908360ff16021790555034801561002c57600080fd5b5060016000803373ffffffffffffffffffffffffffffffffffffffff1673ffffffffffffffffffffffffffffffffffffffff16815260200190815260200160002060006101000a81548160ff0219169083151502179055506112dc806100936000396000f3fe608060405234801561001057600080fd5b50600436106100a95760003560e01c80635e8e30a6116100715780635e8e30a61461019e5780637d55d5f5146101ba5780638170820c146101d6578063b8791ef0146101f2578063f3c40c4b14610222578063f71553451461023e576100a9565b80632325b12d146100ae578063395a6063146100de5780633be544cb1461010e5780633e5beab91461013e578063418349551461016e575b600080fd5b6100c860048036038101906100c39190610d1c565b61026e565b6040516100d59190610d64565b60405180910390f35b6100f860048036038101906100f39190610db5565b61028e565b6040516101059190610df1565b60405180910390f35b61012860048036038101906101239190610d1c565b6102ab565b6040516101359190610e28565b60405180910390f35b61015860048036038101906101539190610d1c565b61031b565b6040516101659190610df1565b60405180910390f35b61018860048036038101906101839190610d1c565b610333565b6040516101959190610d64565b60405180910390f35b6101b860048036038101906101b39190610d1c565b610388565b005b6101d460048036038101906101cf9190610d1c565b610726565b005b6101f060048036038101906101eb9190610e43565b610812565b005b61020c60048036038101906102079190610d1c565b610a3a565b6040516102199190610df1565b60405180910390f35b61023c60048036038101906102379190610e43565b610a83565b005b61025860048036038101906102539190610d1c565b610c99565b6040516102659190610e28565b60405180910390f35b60006020528060005260406000206000915054906101000a900460ff1681565b6000670de0b6b3a7640000826102a49190610ee1565b9050919050565b6000600260008373ffffffffffffffffffffffffffffffffffffffff1673ffffffffffffffffffffffffffffffffffffffff16815260200190815260200160002060009054906101000a900460ff16600460009054906101000a900460ff166103149190610f12565b9050919050565b60016020528060005260406000206000915090505481565b60008060008373ffffffffffffffffffffffffffffffffffffffff1673ffffffffffffffffffffffffffffffffffffffff16815260200190815260200160002060009054906101000a900460ff169050919050565b600115156000803373ffffffffffffffffffffffffffffffffffffffff1673ffffffffffffffffffffffffffffffffffffffff16815260200190815260200160002060009054906101000a900460ff1615151461041a576040517f08c379a000000000000000000000000000000000000000000000000000000000815260040161041190610fc9565b60405180910390fd5b60001515600360003373ffffffffffffffffffffffffffffffffffffffff1673ffffffffffffffffffffffffffffffffffffffff16815260200190815260200160002060008373ffffffffffffffffffffffffffffffffffffffff1673ffffffffffffffffffffffffffffffffffffffff16815260200190815260200160002060009054906101000a900460ff161515146104ea576040517f08c379a00000000000000000000000000000000000000000000000000000000081526004016104e19061105b565b60405180910390fd5b6001600460009054906101000a900460ff1660ff16036105605760016000808373ffffffffffffffffffffffffffffffffffffffff1673ffffffffffffffffffffffffffffffffffffffff16815260200190815260200160002060006101000a81548160ff021916908315150217905550610723565b60011515600360003373ffffffffffffffffffffffffffffffffffffffff1673ffffffffffffffffffffffffffffffffffffffff16815260200190815260200160002060008373ffffffffffffffffffffffffffffffffffffffff1673ffffffffffffffffffffffffffffffffffffffff16815260200190815260200160002060009054906101000a90505050600260008273ffffffffffffffffffffffffffffffffffffffff1673ffffffffffffffffffffffffffffffffffffffff168152602001908152602001600020600081819054906101000a900460ff16809291906106499061107b565b91906101000a81548160ff021916908360ff16021790555050600460009054906101000a900460ff1660ff16600260008373ffffffffffffffffffffffffffffffffffffffff1673ffffffffffffffffffffffffffffffffffffffff16815260200190815260200160002060009054906101000a900460ff1660ff16036107225760016000808373ffffffffffffffffffffffffffffffffffffffff1673ffffffffffffffffffffffffffffffffffffffff16815260200190815260200160002060006101000a81548160ff0219169083151502179055505b5b50565b600115156000803373ffffffffffffffffffffffffffffffffffffffff1673ffffffffffffffffffffffffffffffffffffffff16815260200190815260200160002060009054906101000a900460ff161515146107b8576040517f08c379a00000000000000000000000000000000000000000000000000000000081526004016107af90610fc9565b60405180910390fd5b60008060008373ffffffffffffffffffffffffffffffffffffffff1673ffffffffffffffffffffffffffffffffffffffff16815260200190815260200160002060006101000a81548160ff02191690831515021790555050565b600115156000803373ffffffffffffffffffffffffffffffffffffffff1673ffffffffffffffffffffffffffffffffffffffff16815260200190815260200160002060009054906101000a900460ff161515146108a4576040517f08c379a000000000000000000000000000000000000000000000000000000000815260040161089b90610fc9565b60405180910390fd5b8173ffffffffffffffffffffffffffffffffffffffff163373ffffffffffffffffffffffffffffffffffffffff1603610912576040517f08c379a000000000000000000000000000000000000000000000000000000000815260040161090990611116565b60405180910390fd5b7f96798bba4b94a2230e56e98161b1b80164fe3e9c5a30176e53c96c2e2347fda88233600160008673ffffffffffffffffffffffffffffffffffffffff1673ffffffffffffffffffffffffffffffffffffffff1681526020019081526020016000205484600160008873ffffffffffffffffffffffffffffffffffffffff1673ffffffffffffffffffffffffffffffffffffffff168152602001908152602001600020546109c09190611136565b6040516109d09493929190611179565b60405180910390a16109e18161028e565b600160008473ffffffffffffffffffffffffffffffffffffffff1673ffffffffffffffffffffffffffffffffffffffff1681526020019081526020016000206000828254610a2f9190611136565b925050819055505050565b6000600160008373ffffffffffffffffffffffffffffffffffffffff1673ffffffffffffffffffffffffffffffffffffffff168152602001908152602001600020549050919050565b600115156000803373ffffffffffffffffffffffffffffffffffffffff1673ffffffffffffffffffffffffffffffffffffffff16815260200190815260200160002060009054906101000a900460ff16151514610b15576040517f08c379a0000000000000000000000000000000000000000000000000000000008152600401610b0c90610fc9565b60405180910390fd5b8173ffffffffffffffffffffffffffffffffffffffff163373ffffffffffffffffffffffffffffffffffffffff1603610b83576040517f08c379a0000000000000000000000000000000000000000000000000000000008152600401610b7a90611230565b60405180910390fd5b7f96798bba4b94a2230e56e98161b1b80164fe3e9c5a30176e53c96c2e2347fda88233600160008673ffffffffffffffffffffffffffffffffffffffff1673ffffffffffffffffffffffffffffffffffffffff1681526020019081526020016000205484600160008873ffffffffffffffffffffffffffffffffffffffff1673ffffffffffffffffffffffffffffffffffffffff16815260200190815260200160002054610c319190611250565b604051610c419493929190611179565b60405180910390a1610c528161028e565b600160008473ffffffffffffffffffffffffffffffffffffffff1673ffffffffffffffffffffffffffffffffffffffff168152602001908152602001600020819055505050565b60026020528060005260406000206000915054906101000a900460ff1681565b600080fd5b600073ffffffffffffffffffffffffffffffffffffffff82169050919050565b6000610ce982610cbe565b9050919050565b610cf981610cde565b8114610d0457600080fd5b50565b600081359050610d1681610cf0565b92915050565b600060208284031215610d3257610d31610cb9565b5b6000610d4084828501610d07565b91505092915050565b60008115159050919050565b610d5e81610d49565b82525050565b6000602082019050610d796000830184610d55565b92915050565b6000819050919050565b610d9281610d7f565b8114610d9d57600080fd5b50565b600081359050610daf81610d89565b92915050565b600060208284031215610dcb57610dca610cb9565b5b6000610dd984828501610da0565b91505092915050565b610deb81610d7f565b82525050565b6000602082019050610e066000830184610de2565b92915050565b600060ff82169050919050565b610e2281610e0c565b82525050565b6000602082019050610e3d6000830184610e19565b92915050565b60008060408385031215610e5a57610e59610cb9565b5b6000610e6885828601610d07565b9250506020610e7985828601610da0565b9150509250929050565b7f4e487b7100000000000000000000000000000000000000000000000000000000600052601260045260246000fd5b7f4e487b7100000000000000000000000000000000000000000000000000000000600052601160045260246000fd5b6000610eec82610d7f565b9150610ef783610d7f565b925082610f0757610f06610e83565b5b828204905092915050565b6000610f1d82610e0c565b9150610f2883610e0c565b925082821015610f3b57610f3a610eb2565b5b828203905092915050565b600082825260208201905092915050565b7f596f7520617265206e6f7420616c6c6f77656420746f2061636365737320737560008201527f6368206665617475726500000000000000000000000000000000000000000000602082015250565b6000610fb3602a83610f46565b9150610fbe82610f57565b604082019050919050565b60006020820190508181036000830152610fe281610fa6565b9050919050565b7f596f7520616c726561647920616464656420612076616c69646174696f6e207460008201527f6f20746869732061646472657373000000000000000000000000000000000000602082015250565b6000611045602e83610f46565b915061105082610fe9565b604082019050919050565b6000602082019050818103600083015261107481611038565b9050919050565b600061108682610e0c565b915060ff820361109957611098610eb2565b5b600182019050919050565b7f596f752063616e742072656d6f766520616c6c6f77616e636520746f20796f7560008201527f7273656c66000000000000000000000000000000000000000000000000000000602082015250565b6000611100602583610f46565b915061110b826110a4565b604082019050919050565b6000602082019050818103600083015261112f816110f3565b9050919050565b600061114182610d7f565b915061114c83610d7f565b92508282101561115f5761115e610eb2565b5b828203905092915050565b61117381610cde565b82525050565b600060808201905061118e600083018761116a565b61119b602083018661116a565b6111a86040830185610de2565b6111b56060830184610de2565b95945050505050565b7f596f752063616e74206769766520616c6c6f77616e636520746f20796f75727360008201527f656c660000000000000000000000000000000000000000000000000000000000602082015250565b600061121a602383610f46565b9150611225826111be565b604082019050919050565b600060208201905081810360008301526112498161120d565b9050919050565b600061125b82610d7f565b915061126683610d7f565b9250827fffffffffffffffffffffffffffffffffffffffffffffffffffffffffffffffff0382111561129b5761129a610eb2565b5b82820190509291505056fea2646970667358221220c3dda671c3cd31a27ece6fee95443a021b640dd1c9257f36a0973edc87b1867164736f6c634300080d0033",
  "immutableReferences": {},
  "source": "pragma solidity ^0.8.1;\r\n\r\nimport \"@openzeppelin/contracts/access/Ownable.sol\";\r\n\r\ncontract Allowance {\r\n    \r\n    event allowanceChanged(address _forWho, address _fromWho, uint _oldAmount, uint _newAmount);\r\n    mapping(address => bool) public validateMapping;\r\n    mapping(address => uint) public allowance;\r\n    mapping(address => uint8) public  validations;\r\n    mapping(address => mapping(address => bool)) validated;\r\n    uint8 validLength = 1;\r\n\r\n    constructor() {\r\n        validateMapping[msg.sender] = true;\r\n    }\r\n\r\n    function convertWeiToEther(uint _amountWei) public pure returns(uint) {\r\n        return _amountWei / 1 ether;\r\n    }\r\n\r\n    modifier isAllowed {\r\n        require(validateMapping[msg.sender] == true, \"You are not allowed to access such feature\");\r\n        _;\r\n    }\r\n\r\n    function validateAddress(address _address) public isAllowed {\r\n        require(validated[msg.sender][_address] == false, \"You already added a validation to this address\");\r\n        if(validLength == 1){\r\n        validateMapping[_address] = true;\r\n        }else{\r\n            validated[msg.sender][_address] == true;\r\n            validations[_address]++;\r\n            if(validations[_address] == validLength){\r\n                validateMapping[_address] = true;\r\n            }\r\n        }\r\n    }\r\n\r\n    function unvalidateAddress(address _address) public isAllowed {\r\n        validateMapping[_address] = false;\r\n    }\r\n\r\n    function addAllowance(address _who, uint _amount) public isAllowed {\r\n        require(msg.sender != _who, \"You cant give allowance to yourself\");\r\n        emit allowanceChanged(_who, msg.sender, allowance[_who], allowance[_who] + _amount);\r\n        allowance[_who] = convertWeiToEther(_amount);\r\n    }\r\n\r\n    function removeAllowance(address _who, uint _amount) public isAllowed {\r\n        require(msg.sender != _who, \"You cant remove allowance to yourself\");\r\n        emit allowanceChanged(_who, msg.sender, allowance[_who], allowance[_who] - _amount);\r\n        allowance[_who] -= convertWeiToEther(_amount);\r\n    }\r\n\r\n    function addressStatus(address _address) public view returns(bool) {\r\n            return validateMapping[_address];\r\n    }\r\n\r\n    function addressRemainingValidation(address _address) public view returns(uint8){\r\n        return validLength - validations[_address];\r\n    }\r\n\r\n    function addressAllowance(address _address) public view returns(uint){\r\n        return allowance[_address];\r\n    }\r\n\r\n}\r\n\r\ncontract Multisigned is Allowance, Ownable {\r\n\r\n    event moneySent(address _forWho, uint _amount);\r\n    event moneyReceived(address _from, uint _amount);\r\n\r\n    struct Payment {\r\n        uint amount;\r\n        uint timestamp;\r\n    }\r\n\r\n    struct Balance{\r\n        uint totalBalance;\r\n        uint numPayments;\r\n        mapping (uint => Payment) payments;\r\n    }\r\n\r\n    mapping(address => Balance) public balanceReceived;\r\n\r\n    function getBalance() public view returns(uint){\r\n        return address(this).balance;\r\n    }\r\n\r\n    function withdrawMoney(address payable _to, uint _amount) public isAllowed {\r\n        require(balanceReceived[msg.sender].totalBalance >= _amount, \"not enough funds to withdraw\");\r\n        require(allowance[_to] >= _amount, \"The amount is higher then the address allowance\");\r\n        assert(balanceReceived[msg.sender].totalBalance >= balanceReceived[msg.sender].totalBalance - _amount);\r\n        balanceReceived[msg.sender].totalBalance -= _amount;\r\n        _to.transfer(_amount);\r\n    }\r\n\r\n   /* \r\n   function receiveMoney() public payable{\r\n       balanceReceived[msg.sender].totalBalance += msg.value;\r\n       Payment memory payment = Payment(msg.value, now);\r\n       balanceReceived[msg.sender].payments[balanceReceived[msg.sender].numPayments] = payment;\r\n       balanceReceived[msg.sender].numPayments++;\r\n   }\r\n   */\r\n\r\n    receive() external payable {\r\n        emit moneyReceived(msg.sender, msg.value);\r\n    }\r\n}",
  "sourcePath": "C:\\Users\\rodri\\web3_projects\\multisigned-wallet\\contracts\\Multisigned.sol",
  "compiler": {
    "name": "solc",
    "version": "0.8.13+commit.abaa5c0e.Emscripten.clang"
  },
  "schemaVersion": "3.4.3",
  "updatedAt": "2022-05-11T06:45:49.406Z",
  "devdoc": {
    "kind": "dev",
    "methods": {},
    "version": 1
  },
  "userdoc": {
    "kind": "user",
    "methods": {},
    "version": 1
  }
}