{
  "contractName": "Multisigned",
  "abi": [
    {
      "anonymous": false,
      "inputs": [
        {
          "indexed": true,
          "internalType": "address",
          "name": "previousOwner",
          "type": "address"
        },
        {
          "indexed": true,
          "internalType": "address",
          "name": "newOwner",
          "type": "address"
        }
      ],
      "name": "OwnershipTransferred",
      "type": "event"
    },
    {
      "anonymous": false,
      "inputs": [
        {
          "indexed": false,
          "internalType": "address",
          "name": "_forWho",
          "type": "address"
        },
        {
          "indexed": false,
          "internalType": "address",
          "name": "_fromWho",
          "type": "address"
        },
        {
          "indexed": false,
          "internalType": "uint256",
          "name": "_oldAmount",
          "type": "uint256"
        },
        {
          "indexed": false,
          "internalType": "uint256",
          "name": "_newAmount",
          "type": "uint256"
        }
      ],
      "name": "allowanceChanged",
      "type": "event"
    },
    {
      "anonymous": false,
      "inputs": [
        {
          "indexed": false,
          "internalType": "address",
          "name": "_from",
          "type": "address"
        },
        {
          "indexed": false,
          "internalType": "uint256",
          "name": "_amount",
          "type": "uint256"
        }
      ],
      "name": "moneyReceived",
      "type": "event"
    },
    {
      "anonymous": false,
      "inputs": [
        {
          "indexed": false,
          "internalType": "address",
          "name": "_forWho",
          "type": "address"
        },
        {
          "indexed": false,
          "internalType": "uint256",
          "name": "_amount",
          "type": "uint256"
        }
      ],
      "name": "moneySent",
      "type": "event"
    },
    {
      "inputs": [
        {
          "internalType": "address",
          "name": "_who",
          "type": "address"
        },
        {
          "internalType": "uint256",
          "name": "_amount",
          "type": "uint256"
        }
      ],
      "name": "addAllowance",
      "outputs": [],
      "stateMutability": "nonpayable",
      "type": "function"
    },
    {
      "inputs": [
        {
          "internalType": "address",
          "name": "_address",
          "type": "address"
        }
      ],
      "name": "addressAllowance",
      "outputs": [
        {
          "internalType": "uint256",
          "name": "",
          "type": "uint256"
        }
      ],
      "stateMutability": "view",
      "type": "function",
      "constant": true
    },
    {
      "inputs": [
        {
          "internalType": "address",
          "name": "_address",
          "type": "address"
        }
      ],
      "name": "addressRemainingValidation",
      "outputs": [
        {
          "internalType": "uint8",
          "name": "",
          "type": "uint8"
        }
      ],
      "stateMutability": "view",
      "type": "function",
      "constant": true
    },
    {
      "inputs": [
        {
          "internalType": "address",
          "name": "_address",
          "type": "address"
        }
      ],
      "name": "addressStatus",
      "outputs": [
        {
          "internalType": "bool",
          "name": "",
          "type": "bool"
        }
      ],
      "stateMutability": "view",
      "type": "function",
      "constant": true
    },
    {
      "inputs": [
        {
          "internalType": "address",
          "name": "",
          "type": "address"
        }
      ],
      "name": "allowance",
      "outputs": [
        {
          "internalType": "uint256",
          "name": "",
          "type": "uint256"
        }
      ],
      "stateMutability": "view",
      "type": "function",
      "constant": true
    },
    {
      "inputs": [
        {
          "internalType": "address",
          "name": "",
          "type": "address"
        }
      ],
      "name": "balanceReceived",
      "outputs": [
        {
          "internalType": "uint256",
          "name": "totalBalance",
          "type": "uint256"
        },
        {
          "internalType": "uint256",
          "name": "numPayments",
          "type": "uint256"
        }
      ],
      "stateMutability": "view",
      "type": "function",
      "constant": true
    },
    {
      "inputs": [
        {
          "internalType": "uint256",
          "name": "_amountWei",
          "type": "uint256"
        }
      ],
      "name": "convertWeiToEther",
      "outputs": [
        {
          "internalType": "uint256",
          "name": "",
          "type": "uint256"
        }
      ],
      "stateMutability": "pure",
      "type": "function",
      "constant": true
    },
    {
      "inputs": [],
      "name": "owner",
      "outputs": [
        {
          "internalType": "address",
          "name": "",
          "type": "address"
        }
      ],
      "stateMutability": "view",
      "type": "function",
      "constant": true
    },
    {
      "inputs": [
        {
          "internalType": "address",
          "name": "_who",
          "type": "address"
        },
        {
          "internalType": "uint256",
          "name": "_amount",
          "type": "uint256"
        }
      ],
      "name": "removeAllowance",
      "outputs": [],
      "stateMutability": "nonpayable",
      "type": "function"
    },
    {
      "inputs": [],
      "name": "renounceOwnership",
      "outputs": [],
      "stateMutability": "nonpayable",
      "type": "function"
    },
    {
      "inputs": [
        {
          "internalType": "address",
          "name": "newOwner",
          "type": "address"
        }
      ],
      "name": "transferOwnership",
      "outputs": [],
      "stateMutability": "nonpayable",
      "type": "function"
    },
    {
      "inputs": [
        {
          "internalType": "address",
          "name": "_address",
          "type": "address"
        }
      ],
      "name": "unvalidateAddress",
      "outputs": [],
      "stateMutability": "nonpayable",
      "type": "function"
    },
    {
      "inputs": [
        {
          "internalType": "address",
          "name": "_address",
          "type": "address"
        }
      ],
      "name": "validateAddress",
      "outputs": [],
      "stateMutability": "nonpayable",
      "type": "function"
    },
    {
      "inputs": [
        {
          "internalType": "address",
          "name": "",
          "type": "address"
        }
      ],
      "name": "validateMapping",
      "outputs": [
        {
          "internalType": "bool",
          "name": "",
          "type": "bool"
        }
      ],
      "stateMutability": "view",
      "type": "function",
      "constant": true
    },
    {
      "inputs": [
        {
          "internalType": "address",
          "name": "",
          "type": "address"
        }
      ],
      "name": "validations",
      "outputs": [
        {
          "internalType": "uint8",
          "name": "",
          "type": "uint8"
        }
      ],
      "stateMutability": "view",
      "type": "function",
      "constant": true
    },
    {
      "stateMutability": "payable",
      "type": "receive",
      "payable": true
    },
    {
      "inputs": [],
      "name": "getBalance",
      "outputs": [
        {
          "internalType": "uint256",
          "name": "",
          "type": "uint256"
        }
      ],
      "stateMutability": "view",
      "type": "function",
      "constant": true
    },
    {
      "inputs": [
        {
          "internalType": "address payable",
          "name": "_to",
          "type": "address"
        },
        {
          "internalType": "uint256",
          "name": "_amount",
          "type": "uint256"
        }
      ],
      "name": "withdrawMoney",
      "outputs": [],
      "stateMutability": "nonpayable",
      "type": "function"
    }
  ],
  "bytecode": "0x60806040526001600460006101000a81548160ff021916908360ff16021790555034801561002c57600080fd5b5060016000803373ffffffffffffffffffffffffffffffffffffffff1673ffffffffffffffffffffffffffffffffffffffff16815260200190815260200160002060006101000a81548160ff0219169083151502179055506100a06100956100a560201b60201c565b6100ad60201b60201c565b610173565b600033905090565b6000600460019054906101000a900473ffffffffffffffffffffffffffffffffffffffff16905081600460016101000a81548173ffffffffffffffffffffffffffffffffffffffff021916908373ffffffffffffffffffffffffffffffffffffffff1602179055508173ffffffffffffffffffffffffffffffffffffffff168173ffffffffffffffffffffffffffffffffffffffff167f8be0079c531659141344cd1fd0a4f28419497f9722a3daafe3b4186f6b6457e060405160405180910390a35050565b611d97806101826000396000f3fe6080604052600436106101025760003560e01c80637d55d5f511610095578063d18a42e111610064578063d18a42e11461039d578063f274c897146103db578063f2fde38b14610404578063f3c40c4b1461042d578063f71553451461045657610142565b80637d55d5f5146102e35780638170820c1461030c5780638da5cb5b14610335578063b8791ef01461036057610142565b80633e5beab9116100d15780633e5beab91461022957806341834955146102665780635e8e30a6146102a3578063715018a6146102cc57610142565b806312065fe0146101475780632325b12d14610172578063395a6063146101af5780633be544cb146101ec57610142565b36610142577fd26a4cc04a176a5d0fe4f335df140819025caf594d34bb4cfe389be4ceb61a1733346040516101389291906114b8565b60405180910390a1005b600080fd5b34801561015357600080fd5b5061015c610493565b60405161016991906114e1565b60405180910390f35b34801561017e57600080fd5b506101996004803603810190610194919061152d565b61049b565b6040516101a69190611575565b60405180910390f35b3480156101bb57600080fd5b506101d660048036038101906101d191906115bc565b6104bb565b6040516101e391906114e1565b60405180910390f35b3480156101f857600080fd5b50610213600480360381019061020e919061152d565b6104d8565b6040516102209190611605565b60405180910390f35b34801561023557600080fd5b50610250600480360381019061024b919061152d565b610548565b60405161025d91906114e1565b60405180910390f35b34801561027257600080fd5b5061028d6004803603810190610288919061152d565b610560565b60405161029a9190611575565b60405180910390f35b3480156102af57600080fd5b506102ca60048036038101906102c5919061152d565b6105b5565b005b3480156102d857600080fd5b506102e1610953565b005b3480156102ef57600080fd5b5061030a6004803603810190610305919061152d565b6109db565b005b34801561031857600080fd5b50610333600480360381019061032e9190611620565b610ac7565b005b34801561034157600080fd5b5061034a610cef565b6040516103579190611660565b60405180910390f35b34801561036c57600080fd5b506103876004803603810190610382919061152d565b610d19565b60405161039491906114e1565b60405180910390f35b3480156103a957600080fd5b506103c460048036038101906103bf919061152d565b610d62565b6040516103d292919061167b565b60405180910390f35b3480156103e757600080fd5b5061040260048036038101906103fd91906116e2565b610d86565b005b34801561041057600080fd5b5061042b6004803603810190610426919061152d565b611063565b005b34801561043957600080fd5b50610454600480360381019061044f9190611620565b61115a565b005b34801561046257600080fd5b5061047d6004803603810190610478919061152d565b611370565b60405161048a9190611605565b60405180910390f35b600047905090565b60006020528060005260406000206000915054906101000a900460ff1681565b6000670de0b6b3a7640000826104d19190611780565b9050919050565b6000600260008373ffffffffffffffffffffffffffffffffffffffff1673ffffffffffffffffffffffffffffffffffffffff16815260200190815260200160002060009054906101000a900460ff16600460009054906101000a900460ff1661054191906117b1565b9050919050565b60016020528060005260406000206000915090505481565b60008060008373ffffffffffffffffffffffffffffffffffffffff1673ffffffffffffffffffffffffffffffffffffffff16815260200190815260200160002060009054906101000a900460ff169050919050565b600115156000803373ffffffffffffffffffffffffffffffffffffffff1673ffffffffffffffffffffffffffffffffffffffff16815260200190815260200160002060009054906101000a900460ff16151514610647576040517f08c379a000000000000000000000000000000000000000000000000000000000815260040161063e90611868565b60405180910390fd5b60001515600360003373ffffffffffffffffffffffffffffffffffffffff1673ffffffffffffffffffffffffffffffffffffffff16815260200190815260200160002060008373ffffffffffffffffffffffffffffffffffffffff1673ffffffffffffffffffffffffffffffffffffffff16815260200190815260200160002060009054906101000a900460ff16151514610717576040517f08c379a000000000000000000000000000000000000000000000000000000000815260040161070e906118fa565b60405180910390fd5b6001600460009054906101000a900460ff1660ff160361078d5760016000808373ffffffffffffffffffffffffffffffffffffffff1673ffffffffffffffffffffffffffffffffffffffff16815260200190815260200160002060006101000a81548160ff021916908315150217905550610950565b60011515600360003373ffffffffffffffffffffffffffffffffffffffff1673ffffffffffffffffffffffffffffffffffffffff16815260200190815260200160002060008373ffffffffffffffffffffffffffffffffffffffff1673ffffffffffffffffffffffffffffffffffffffff16815260200190815260200160002060009054906101000a90505050600260008273ffffffffffffffffffffffffffffffffffffffff1673ffffffffffffffffffffffffffffffffffffffff168152602001908152602001600020600081819054906101000a900460ff16809291906108769061191a565b91906101000a81548160ff021916908360ff16021790555050600460009054906101000a900460ff1660ff16600260008373ffffffffffffffffffffffffffffffffffffffff1673ffffffffffffffffffffffffffffffffffffffff16815260200190815260200160002060009054906101000a900460ff1660ff160361094f5760016000808373ffffffffffffffffffffffffffffffffffffffff1673ffffffffffffffffffffffffffffffffffffffff16815260200190815260200160002060006101000a81548160ff0219169083151502179055505b5b50565b61095b611390565b73ffffffffffffffffffffffffffffffffffffffff16610979610cef565b73ffffffffffffffffffffffffffffffffffffffff16146109cf576040517f08c379a00000000000000000000000000000000000000000000000000000000081526004016109c69061198f565b60405180910390fd5b6109d96000611398565b565b600115156000803373ffffffffffffffffffffffffffffffffffffffff1673ffffffffffffffffffffffffffffffffffffffff16815260200190815260200160002060009054906101000a900460ff16151514610a6d576040517f08c379a0000000000000000000000000000000000000000000000000000000008152600401610a6490611868565b60405180910390fd5b60008060008373ffffffffffffffffffffffffffffffffffffffff1673ffffffffffffffffffffffffffffffffffffffff16815260200190815260200160002060006101000a81548160ff02191690831515021790555050565b600115156000803373ffffffffffffffffffffffffffffffffffffffff1673ffffffffffffffffffffffffffffffffffffffff16815260200190815260200160002060009054906101000a900460ff16151514610b59576040517f08c379a0000000000000000000000000000000000000000000000000000000008152600401610b5090611868565b60405180910390fd5b8173ffffffffffffffffffffffffffffffffffffffff163373ffffffffffffffffffffffffffffffffffffffff1603610bc7576040517f08c379a0000000000000000000000000000000000000000000000000000000008152600401610bbe90611a21565b60405180910390fd5b7f96798bba4b94a2230e56e98161b1b80164fe3e9c5a30176e53c96c2e2347fda88233600160008673ffffffffffffffffffffffffffffffffffffffff1673ffffffffffffffffffffffffffffffffffffffff1681526020019081526020016000205484600160008873ffffffffffffffffffffffffffffffffffffffff1673ffffffffffffffffffffffffffffffffffffffff16815260200190815260200160002054610c759190611a41565b604051610c859493929190611a75565b60405180910390a1610c96816104bb565b600160008473ffffffffffffffffffffffffffffffffffffffff1673ffffffffffffffffffffffffffffffffffffffff1681526020019081526020016000206000828254610ce49190611a41565b925050819055505050565b6000600460019054906101000a900473ffffffffffffffffffffffffffffffffffffffff16905090565b6000600160008373ffffffffffffffffffffffffffffffffffffffff1673ffffffffffffffffffffffffffffffffffffffff168152602001908152602001600020549050919050565b60056020528060005260406000206000915090508060000154908060010154905082565b600115156000803373ffffffffffffffffffffffffffffffffffffffff1673ffffffffffffffffffffffffffffffffffffffff16815260200190815260200160002060009054906101000a900460ff16151514610e18576040517f08c379a0000000000000000000000000000000000000000000000000000000008152600401610e0f90611868565b60405180910390fd5b80600560003373ffffffffffffffffffffffffffffffffffffffff1673ffffffffffffffffffffffffffffffffffffffff168152602001908152602001600020600001541015610e9d576040517f08c379a0000000000000000000000000000000000000000000000000000000008152600401610e9490611b06565b60405180910390fd5b80600160008473ffffffffffffffffffffffffffffffffffffffff1673ffffffffffffffffffffffffffffffffffffffff168152602001908152602001600020541015610f1f576040517f08c379a0000000000000000000000000000000000000000000000000000000008152600401610f1690611b98565b60405180910390fd5b80600560003373ffffffffffffffffffffffffffffffffffffffff1673ffffffffffffffffffffffffffffffffffffffff16815260200190815260200160002060000154610f6d9190611a41565b600560003373ffffffffffffffffffffffffffffffffffffffff1673ffffffffffffffffffffffffffffffffffffffff168152602001908152602001600020600001541015610fbf57610fbe611bb8565b5b80600560003373ffffffffffffffffffffffffffffffffffffffff1673ffffffffffffffffffffffffffffffffffffffff16815260200190815260200160002060000160008282546110119190611a41565b925050819055508173ffffffffffffffffffffffffffffffffffffffff166108fc829081150290604051600060405180830381858888f1935050505015801561105e573d6000803e3d6000fd5b505050565b61106b611390565b73ffffffffffffffffffffffffffffffffffffffff16611089610cef565b73ffffffffffffffffffffffffffffffffffffffff16146110df576040517f08c379a00000000000000000000000000000000000000000000000000000000081526004016110d69061198f565b60405180910390fd5b600073ffffffffffffffffffffffffffffffffffffffff168173ffffffffffffffffffffffffffffffffffffffff160361114e576040517f08c379a000000000000000000000000000000000000000000000000000000000815260040161114590611c59565b60405180910390fd5b61115781611398565b50565b600115156000803373ffffffffffffffffffffffffffffffffffffffff1673ffffffffffffffffffffffffffffffffffffffff16815260200190815260200160002060009054906101000a900460ff161515146111ec576040517f08c379a00000000000000000000000000000000000000000000000000000000081526004016111e390611868565b60405180910390fd5b8173ffffffffffffffffffffffffffffffffffffffff163373ffffffffffffffffffffffffffffffffffffffff160361125a576040517f08c379a000000000000000000000000000000000000000000000000000000000815260040161125190611ceb565b60405180910390fd5b7f96798bba4b94a2230e56e98161b1b80164fe3e9c5a30176e53c96c2e2347fda88233600160008673ffffffffffffffffffffffffffffffffffffffff1673ffffffffffffffffffffffffffffffffffffffff1681526020019081526020016000205484600160008873ffffffffffffffffffffffffffffffffffffffff1673ffffffffffffffffffffffffffffffffffffffff168152602001908152602001600020546113089190611d0b565b6040516113189493929190611a75565b60405180910390a1611329816104bb565b600160008473ffffffffffffffffffffffffffffffffffffffff1673ffffffffffffffffffffffffffffffffffffffff168152602001908152602001600020819055505050565b60026020528060005260406000206000915054906101000a900460ff1681565b600033905090565b6000600460019054906101000a900473ffffffffffffffffffffffffffffffffffffffff16905081600460016101000a81548173ffffffffffffffffffffffffffffffffffffffff021916908373ffffffffffffffffffffffffffffffffffffffff1602179055508173ffffffffffffffffffffffffffffffffffffffff168173ffffffffffffffffffffffffffffffffffffffff167f8be0079c531659141344cd1fd0a4f28419497f9722a3daafe3b4186f6b6457e060405160405180910390a35050565b600073ffffffffffffffffffffffffffffffffffffffff82169050919050565b60006114898261145e565b9050919050565b6114998161147e565b82525050565b6000819050919050565b6114b28161149f565b82525050565b60006040820190506114cd6000830185611490565b6114da60208301846114a9565b9392505050565b60006020820190506114f660008301846114a9565b92915050565b600080fd5b61150a8161147e565b811461151557600080fd5b50565b60008135905061152781611501565b92915050565b600060208284031215611543576115426114fc565b5b600061155184828501611518565b91505092915050565b60008115159050919050565b61156f8161155a565b82525050565b600060208201905061158a6000830184611566565b92915050565b6115998161149f565b81146115a457600080fd5b50565b6000813590506115b681611590565b92915050565b6000602082840312156115d2576115d16114fc565b5b60006115e0848285016115a7565b91505092915050565b600060ff82169050919050565b6115ff816115e9565b82525050565b600060208201905061161a60008301846115f6565b92915050565b60008060408385031215611637576116366114fc565b5b600061164585828601611518565b9250506020611656858286016115a7565b9150509250929050565b60006020820190506116756000830184611490565b92915050565b600060408201905061169060008301856114a9565b61169d60208301846114a9565b9392505050565b60006116af8261145e565b9050919050565b6116bf816116a4565b81146116ca57600080fd5b50565b6000813590506116dc816116b6565b92915050565b600080604083850312156116f9576116f86114fc565b5b6000611707858286016116cd565b9250506020611718858286016115a7565b9150509250929050565b7f4e487b7100000000000000000000000000000000000000000000000000000000600052601260045260246000fd5b7f4e487b7100000000000000000000000000000000000000000000000000000000600052601160045260246000fd5b600061178b8261149f565b91506117968361149f565b9250826117a6576117a5611722565b5b828204905092915050565b60006117bc826115e9565b91506117c7836115e9565b9250828210156117da576117d9611751565b5b828203905092915050565b600082825260208201905092915050565b7f596f7520617265206e6f7420616c6c6f77656420746f2061636365737320737560008201527f6368206665617475726500000000000000000000000000000000000000000000602082015250565b6000611852602a836117e5565b915061185d826117f6565b604082019050919050565b6000602082019050818103600083015261188181611845565b9050919050565b7f596f7520616c726561647920616464656420612076616c69646174696f6e207460008201527f6f20746869732061646472657373000000000000000000000000000000000000602082015250565b60006118e4602e836117e5565b91506118ef82611888565b604082019050919050565b60006020820190508181036000830152611913816118d7565b9050919050565b6000611925826115e9565b915060ff820361193857611937611751565b5b600182019050919050565b7f4f776e61626c653a2063616c6c6572206973206e6f7420746865206f776e6572600082015250565b60006119796020836117e5565b915061198482611943565b602082019050919050565b600060208201905081810360008301526119a88161196c565b9050919050565b7f596f752063616e742072656d6f766520616c6c6f77616e636520746f20796f7560008201527f7273656c66000000000000000000000000000000000000000000000000000000602082015250565b6000611a0b6025836117e5565b9150611a16826119af565b604082019050919050565b60006020820190508181036000830152611a3a816119fe565b9050919050565b6000611a4c8261149f565b9150611a578361149f565b925082821015611a6a57611a69611751565b5b828203905092915050565b6000608082019050611a8a6000830187611490565b611a976020830186611490565b611aa460408301856114a9565b611ab160608301846114a9565b95945050505050565b7f6e6f7420656e6f7567682066756e647320746f20776974686472617700000000600082015250565b6000611af0601c836117e5565b9150611afb82611aba565b602082019050919050565b60006020820190508181036000830152611b1f81611ae3565b9050919050565b7f54686520616d6f756e7420697320686967686572207468656e2074686520616460008201527f647265737320616c6c6f77616e63650000000000000000000000000000000000602082015250565b6000611b82602f836117e5565b9150611b8d82611b26565b604082019050919050565b60006020820190508181036000830152611bb181611b75565b9050919050565b7f4e487b7100000000000000000000000000000000000000000000000000000000600052600160045260246000fd5b7f4f776e61626c653a206e6577206f776e657220697320746865207a65726f206160008201527f6464726573730000000000000000000000000000000000000000000000000000602082015250565b6000611c436026836117e5565b9150611c4e82611be7565b604082019050919050565b60006020820190508181036000830152611c7281611c36565b9050919050565b7f596f752063616e74206769766520616c6c6f77616e636520746f20796f75727360008201527f656c660000000000000000000000000000000000000000000000000000000000602082015250565b6000611cd56023836117e5565b9150611ce082611c79565b604082019050919050565b60006020820190508181036000830152611d0481611cc8565b9050919050565b6000611d168261149f565b9150611d218361149f565b9250827fffffffffffffffffffffffffffffffffffffffffffffffffffffffffffffffff03821115611d5657611d55611751565b5b82820190509291505056fea26469706673582212203407b28eaced75e60486791f817284d57093e49bebcdeb2ab9968805fc43521664736f6c634300080d0033",
  "immutableReferences": {},
  "source": "pragma solidity ^0.8.1;\r\n\r\nimport \"@openzeppelin/contracts/access/Ownable.sol\";\r\n\r\ncontract Allowance {\r\n    \r\n    event allowanceChanged(address _forWho, address _fromWho, uint _oldAmount, uint _newAmount);\r\n    mapping(address => bool) public validateMapping;\r\n    mapping(address => uint) public allowance;\r\n    mapping(address => uint8) public  validations;\r\n    mapping(address => mapping(address => bool)) validated;\r\n    uint8 validLength = 1;\r\n\r\n    constructor() {\r\n        validateMapping[msg.sender] = true;\r\n    }\r\n\r\n    function convertWeiToEther(uint _amountWei) public pure returns(uint) {\r\n        return _amountWei / 1 ether;\r\n    }\r\n\r\n    modifier isAllowed {\r\n        require(validateMapping[msg.sender] == true, \"You are not allowed to access such feature\");\r\n        _;\r\n    }\r\n\r\n    function validateAddress(address _address) public isAllowed {\r\n        require(validated[msg.sender][_address] == false, \"You already added a validation to this address\");\r\n        if(validLength == 1){\r\n        validateMapping[_address] = true;\r\n        }else{\r\n            validated[msg.sender][_address] == true;\r\n            validations[_address]++;\r\n            if(validations[_address] == validLength){\r\n                validateMapping[_address] = true;\r\n            }\r\n        }\r\n    }\r\n\r\n    function unvalidateAddress(address _address) public isAllowed {\r\n        validateMapping[_address] = false;\r\n    }\r\n\r\n    function addAllowance(address _who, uint _amount) public isAllowed {\r\n        require(msg.sender != _who, \"You cant give allowance to yourself\");\r\n        emit allowanceChanged(_who, msg.sender, allowance[_who], allowance[_who] + _amount);\r\n        allowance[_who] = convertWeiToEther(_amount);\r\n    }\r\n\r\n    function removeAllowance(address _who, uint _amount) public isAllowed {\r\n        require(msg.sender != _who, \"You cant remove allowance to yourself\");\r\n        emit allowanceChanged(_who, msg.sender, allowance[_who], allowance[_who] - _amount);\r\n        allowance[_who] -= convertWeiToEther(_amount);\r\n    }\r\n\r\n    function addressStatus(address _address) public view returns(bool) {\r\n            return validateMapping[_address];\r\n    }\r\n\r\n    function addressRemainingValidation(address _address) public view returns(uint8){\r\n        return validLength - validations[_address];\r\n    }\r\n\r\n    function addressAllowance(address _address) public view returns(uint){\r\n        return allowance[_address];\r\n    }\r\n\r\n}\r\n\r\ncontract Multisigned is Allowance, Ownable {\r\n\r\n    event moneySent(address _forWho, uint _amount);\r\n    event moneyReceived(address _from, uint _amount);\r\n\r\n    struct Payment {\r\n        uint amount;\r\n        uint timestamp;\r\n    }\r\n\r\n    struct Balance{\r\n        uint totalBalance;\r\n        uint numPayments;\r\n        mapping (uint => Payment) payments;\r\n    }\r\n\r\n    mapping(address => Balance) public balanceReceived;\r\n\r\n    function getBalance() public view returns(uint){\r\n        return address(this).balance;\r\n    }\r\n\r\n    function withdrawMoney(address payable _to, uint _amount) public isAllowed {\r\n        require(balanceReceived[msg.sender].totalBalance >= _amount, \"not enough funds to withdraw\");\r\n        require(allowance[_to] >= _amount, \"The amount is higher then the address allowance\");\r\n        assert(balanceReceived[msg.sender].totalBalance >= balanceReceived[msg.sender].totalBalance - _amount);\r\n        balanceReceived[msg.sender].totalBalance -= _amount;\r\n        _to.transfer(_amount);\r\n    }\r\n\r\n   /* \r\n   function receiveMoney() public payable{\r\n       balanceReceived[msg.sender].totalBalance += msg.value;\r\n       Payment memory payment = Payment(msg.value, now);\r\n       balanceReceived[msg.sender].payments[balanceReceived[msg.sender].numPayments] = payment;\r\n       balanceReceived[msg.sender].numPayments++;\r\n   }\r\n   */\r\n\r\n    receive() external payable {\r\n        emit moneyReceived(msg.sender, msg.value);\r\n    }\r\n}",
  "sourcePath": "C:\\Users\\rodri\\web3_projects\\multisigned-wallet\\contracts\\Multisigned.sol",
  "compiler": {
    "name": "solc",
    "version": "0.8.13+commit.abaa5c0e.Emscripten.clang"
  },
  "schemaVersion": "3.4.3",
  "updatedAt": "2022-05-11T06:46:00.465Z",
  "networkType": "ethereum",
  "devdoc": {
    "kind": "dev",
    "methods": {
      "owner()": {
        "details": "Returns the address of the current owner."
      },
      "renounceOwnership()": {
        "details": "Leaves the contract without owner. It will not be possible to call `onlyOwner` functions anymore. Can only be called by the current owner. NOTE: Renouncing ownership will leave the contract without an owner, thereby removing any functionality that is only available to the owner."
      },
      "transferOwnership(address)": {
        "details": "Transfers ownership of the contract to a new account (`newOwner`). Can only be called by the current owner."
      }
    },
    "version": 1
  },
  "userdoc": {
    "kind": "user",
    "methods": {},
    "version": 1
  }
}